S0130000536572766F646F75626C652E7372656387
S11300000C942A000C9434000C9434000C943400A6
S11300100C9434000C9434000C9434000C9434008C
S11300200C9434000C9434000C9434000C9434007C
S11300300C9434000C9434000C9434000C9434006C
S11300400C9434000C9434000C9434000C9434005C
S11300500C94340011241FBECFE5D8E0DEBFCDBF21
S11300600E9436000C945D000C94000080E38ABB6F
S11300701BBA80E38BBBEFECF7E03197F1F700C0DC
S113008000001BBAFFEF23ED30E3F1502040304075
S1130090E1F700C000008BBB87EB9BE00197F1F711
S11300A000C000001BBA9FEFE3EDF0E39150E04085
S11100B0F040E1F700C00000DCCFF894FFCF71
S9030000FC
