:100000000C942A000C9434000C9434000C943400AA
:100010000C9434000C9434000C9434000C94340090
:100020000C9434000C9434000C9434000C94340080
:100030000C9434000C9434000C9434000C94340070
:100040000C9434000C9434000C9434000C94340060
:100050000C94340011241FBECFE5D8E0DEBFCDBF25
:100060000E9436000C9457000C94000081E084BB81
:1000700015BA81BB12BA81E085BB82BB15BA12BA30
:100080002FEF31E19AE7215030409040E1F700C076
:10009000000085BB82BB15BA12BA2FEF31E18AE7A7
:1000A000215030408040E1F700C00000E4CFF894D8
:0200B000FFCF80
:00000001FF
