S013000066696E616C6520636F64652E73726563E7
S11300000C942A000C9447000C94B5020C944700FD
S11300100C9447000C9447000C9447000C94470040
S11300200C9447000C94E0020C9447000C94470095
S11300300C9447000C9447000C9447000C94470020
S11300400C9447000C9447000C9447000C94470010
S11300500C94470011241FBECFE5D8E0DEBFCDBF0E
S113006011E0A0E6B0E0ECEAFEE002C005900D92DB
S1130070A232B107D9F721E0A2E2B1E001C01D929A
S1130080AA32B207E1F70E9481030C9454070C943E
S1130090000088E088BB2FE788E391E0215080408E
S11300A09040E1F700C0000084E088BB2FE788E3BC
S11300B091E0215080409040E1F700C0000082E0D0
S11300C088BB2FE788E391E0215080409040E1F71E
S11300D000C0000081E088BB2FE788E391E0215055
S11300E080409040E1F700C0000080B3089581E0B3
S11300F088BB2FE788E391E0215080409040E1F7EE
S113010000C0000082E088BB2FE788E391E0215023
S113011080409040E1F700C0000084E088BB2FE7F6
S113012088E391E0215080409040E1F700C0000056
S113013088E088BB2FE788E391E02150804090401D
S1130140E1F700C00000089585B3886085BB80B3E3
S1130150089585B3837F85BB089585B3806E85BB81
S113016085B38F7E85BB809908C08FE19EE401979B
S1130170F1F700C0000081E30895819908C08FE180
S11301809EE40197F1F700C0000082E3089582998C
S113019008C08FE19EE40197F1F700C0000083E3FB
S11301A0089585B38F7D85BB809908C08FE59AEE4D
S11301B00197F1F700C0000084E30895819908C015
S11301C08FE59AEE0197F1F700C0000085E30895EA
S11301D0829908C08FE59AEE0197F1F700C00000FC
S11301E086E3089585B38F7B85BB809908C08FE52E
S11301F09AEE0197F1F700C0000087E30895819912
S113020008C08FE59AEE0197F1F700C0000088E37B
S11302100895829908C08FE59AEE0197F1F700C01E
S1130220000089E3089585B38F7785BB809908C062
S11302308FE59AEE0197F1F700C0000083E408957A
S1130240819908C08FE59AEE0197F1F700C000008C
S113025080E30895829908C08FE59AEE0197F1F73B
S113026000C000008DE30895089582E680B984E01B
S113027086BF11B8089584EA86BF06B607FEFDCF8F
S1130280089583B984E886BF06B607FEFDCF0895B6
S113029040E050E00AC02F5F3F4F02C020E030E052
S11302A029373105C4F34F5F5F4F84179507B4F7BF
S11302B0089583B1826083B984E886BF06B607FED9
S11302C0FDCF81E090E00E94480183B18D7F83B926
S11302D084E886BF06B607FEFDCF089593B19E7FDE
S11302E093B994E896BF06B607FEFDCF93B19F700D
S11302F093B994E896BF06B607FEFDCF93B1807F0D
S1130300892B83B984E886BF06B607FEFDCF0E9419
S113031059010895CF93C82F83B18E7F83B984E8A0
S113032086BF06B607FEFDCF83B18F7083B984E81C
S113033086BF06B607FEFDCF83B19C2F907F892B25
S113034083B984E886BF06B607FEFDCF0E94590133
S113035083B18F7083B984E886BF06B607FEFDCFEC
S113036023B130E1C39FC0011124822B83B984E8F7
S113037086BF06B607FEFDCF0E945901CF910895AE
S113038080E30E946E0180E30E946E0180E20E947D
S11303906E0188E20E948A018CE00E948A0181E059
S11303A00E948A0186E00E948A0180E80E948A01F4
S11303B00895CF93C82F83B1816083B984E886BF41
S11303C006B607FEFDCF83B18F7083B984E886BF7C
S11303D006B607FEFDCF83B19C2F907F892B83B98E
S11303E084E886BF06B607FEFDCF0E94590183B19B
S11303F08F7083B984E886BF06B607FEFDCF23B1AC
S113040030E1C39FC0011124822B83B984E886BFE5
S113041006B607FEFDCF0E945901CF9108950F93B0
S11304201F93CF93DF938C01C0E0D0E003C00E9400
S1130430D9012196F801EC0FFD1F80818111F7CFBE
S1130440DF91CF911F910F91089510BC83E389B977
S113045087B3806187BB81B3806181BB81B3877FB0
S113046081BB82B3877F82BB2FE788E391E0215071
S113047080409040E1F700C000008BB780688BBFDC
S113048085B7846085BF89B7846089BF789482B357
S1130490806182BB28E22A95F1F782B38F7E82BB0A
S11304A088E28A95F1F7609128017091290180E032
S11304B090E00E94350620E034E244E759E40E94CB
S11304C0E70620E034E244EF5AE40E94C30520E04A
S11304D030E048E652E40E94C30560932201709321
S11304E02301809324019093250120E030E040E72C
S11304F051E40E94BE058823DCF488B3806188BB84
S113050081E00E948A0180E690E00E940F029FEF42
S11305102BE48DE1915020408040E1F700C00000C1
S113052080EC0E948A0181E790E00E940F0213C0D0
S11305309FEF2BE48DE1915020408040E1F700C013
S1130540000088B38F7E88BB81E00E948A0181E726
S113055090E00E940F029FEF21EE84E09150204032
S11305608040E1F700C0000092CF1F920F920FB6B7
S11305700F9211248F939F938091260190912701CC
S1130580892B51F48EB581608EBD81E090E090930B
S11305902701809326010DC01EBC8CB59DB5909398
S11305A02901809328011DBC1CBC109227011092C4
S11305B026019F918F910F900FBE0F901F90189559
S11305C01F920F920FB60F9211248F939F931EBC0C
S11305D088EC90E090932901809328011DBC1CBCF9
S11305E010922701109226019F918F910F900FBEB8
S11305F00F901F9018958BB38F7E8BBB8BB380614C
S11306008BBB8FEC97E00197F1F700C000008BB330
S11306108F7E8BBB9FEF23ED80E391502040804081
S1130620E1F700C000008BB380618BBB87EB9BE0DC
S11306300197F1F700C000008BB38F7E8BBB9FEF57
S113064023ED80E3915020408040E1F700C000009A
S113065008958BB38F7E8BBB8BB380638BBB8FEC86
S113066097E00197F1F700C000008BB38F7C8BBB40
S11306709FEF23ED80E3915020408040E1F700C0DC
S113068000008BB380638BBB87EB9BE00197F1F792
S113069000C000008BB38F7C8BBB08958BB381604B
S11306A08BBB08958BB38E7F8BBB8BB38B7F8BBB44
S11306B08BB38D7F8BBB8BB3877F8BBB08958BB341
S11306C081608BBB8BB384608BBB089520E030E0EA
S11306D005C08BB380648BBB2F5F3F4F2630310541
S11306E0C4F32FEF89E698E1215080409040E1F770
S11306F000C000008BB38F7B8BBB8BB38F778BBB1E
S11307000895CF930E9435010E943B0180E70E9427
S113071041010E94C00184B38F6084BB84B3806FA5
S113072084BB9FEF97BB81B38E7F81BB81B38D7FE9
S113073081BB81B38B7F81BB81B38F7D81BB81B34F
S11307408F7B81BB81B38F7781BB9ABB85B38F705D
S113075085BB82B3816082BB82B3826082BB82B379
S1130760846082BB859BCBC10E94A9000E94770054
S113077081E090E00E948A0181E890E00E940F02EB
S11307802FEF81EE94E0215080409040E1F700C0CB
S1130790000080EC90E00E948A018EE890E00E94C4
S11307A00F022FEF85EA9EE0215080409040E1F750
S11307B000C0000080EC90E00E948A0181E090E09B
S11307C00E948A010E94AD00C82F90E00E94D901C6
S11307D02FEF82E597E0215080409040E1F700C080
S11307E00000C13309F087C181E090E00E948A01D2
S11307F08BE990E00E940F022FEF82E597E02150F1
S113080080409040E1F700C0000080EC90E00E943E
S11308108A018BEA90E00E940F022FEF89E698E1AB
S1130820215080409040E1F700C0000080EC90E04F
S11308300E948A0181E090E00E948A010E94AD003A
S1130840C82F90E00E94D9012FEF84E39CE021504F
S113085080409040E1F700C0000081E090E00E94F9
S11308608A01C13309F09BC00E94FB022FEF89E685
S113087098E1215080409040E1F700C000000E94C0
S11308804E032FEF89E698E1215080409040E1F734
S113089000C0000082B3806482BB0E94520389EBD3
S11308A090E00E940F022FEF89E698E121508040EA
S11308B09040E1F700C0000081E090E00E948A01CE
S11308C08AEC90E00E940F0280EC90E00E948A0182
S11308D02FEF82E597E0215080409040E1F700C07F
S11308E000008AED90E00E940F022FEF86E191E173
S11308F0215080409040E1F700C0000080EC90E07F
S11309000E948A0181E090E00E948A010E94AD0069
S1130910C82F90E00E94D9012FEF84E39CE021507E
S113092080409040E1F700C00000C13379F581E0D8
S113093090E00E948A0187EE90E00E940F022FEF60
S113094089E698E1215080409040E1F700C0000022
S113095080EC90E00E948A0181E090E00E948A018C
S11309600E94AD0090E00E94D9012FEF84E39CE047
S1130970215080409040E1F700C000000E946603CF
S113098081E090E00E948A010E942502C23309F0AE
S1130990F1C081E090E00E948A010E942502C233E6
S11309A009F0E8C00E9429032FEF89E698E121505D
S11309B080409040E1F700C000000E945F032FEFE9
S11309C089E698E1215080409040E1F700C00000A2
S11309D082B3806882BB0E9452032FEF84E39CE0C1
S11309E0215080409040E1F700C0000089EB90E086
S11309F00E940F022FEF89E698E121508040904039
S1130A00E1F700C0000081E090E00E948A018AECD6
S1130A1090E00E940F0280EC90E00E948A012FEF88
S1130A2082E597E0215080409040E1F700C000004B
S1130A308AED90E00E940F022FEF89E698E12150A1
S1130A4080409040E1F700C0000080EC90E00E94FC
S1130A508A0181E090E00E948A010E94AD00C82FC3
S1130A6090E00E94D9012FEF82E597E02150804069
S1130A709040E1F700C00000C133C1F581E090E08F
S1130A800E948A0187EE90E00E940F022FEF89E610
S1130A9098E1215080409040E1F700C0000080ECD4
S1130AA090E00E948A0181E090E00E948A010E9405
S1130AB0AD0090E00E94D9012FEF82E597E021502C
S1130AC080409040E1F700C000000E9466032FEFD1
S1130AD082E597E0215080409040E1F700C000009B
S1130AE081E090E00E948A010E942502C23309F04D
S1130AF041C00E942502C233E9F50E94250280E824
S1130B0090E00E948A0183EF90E00E940F022FEF91
S1130B1084E39CE0215080409040E1F700C0000055
S1130B2081E090E00E948A0183E091E00E940F023C
S1130B302FEF84E39CE0215080409040E1F700C017
S1130B40000080EC90E00E948A0182E191E00E9422
S1130B500F022FEF89E698E1215080409040E1F7A1
S1130B6000C0000081E090E00E948A010E94A4007D
S1130B700E94490080E090E0CF9108950E9472069F
S1130B8008F481E008950E94D7050C94AD060E94F4
S1130B90A60658F00E949F0640F029F45F3F29F012
S1130BA00C94960651110C94E1060C949C060E9438
S1130BB0BE0668F39923B1F3552391F3951B550BA6
S1130BC0BB27AA2762177307840738F09F5F5F4F1C
S1130BD0220F331F441FAA1FA9F335D00E2E3AF05B
S1130BE0E0E832D091505040E695001CCAF72BD073
S1130BF0FE2F29D0660F771F881FBB1F26173707C4
S1130C004807AB07B0E809F0BB0B802DBF01FF27F5
S1130C1093585F4F3AF09E3F510578F00C94960636
S1130C200C94E1065F3FE4F3983ED4F38695779500
S1130C306795B795F7959F5FC9F7880F911D9695AE
S1130C40879597F90895E1E0660F771F881FBB1F0A
S1130C50621773078407BA0720F0621B730B840BB7
S1130C60BA0BEE1F88F7E0950895E89409C097FB46
S1130C703EF490958095709561957F4F8F4F9F4F6F
S1130C809923A9F0F92F96E9BB279395F6958795B3
S1130C9077956795B795F111F8CFFAF4BB0F11F476
S1130CA060FF1BC06F5F7F4F8F4F9F4F16C088231D
S1130CB011F096E911C0772321F09EE8872F762F53
S1130CC005C0662371F096E8862F70E060E02AF094
S1130CD09A95660F771F881FDAF7880F9695879580
S1130CE097F90895990F0008550FAA0BE0E8FEEF55
S1130CF016161706E807F907C0F012161306E407DC
S1130D00F50798F0621B730B840B950B39F40A26D4
S1130D1061F0232B242B252B21F408950A2609F4B2
S1130D20A140A6958FEF811D811D089597F99F67B6
S1130D3080E870E060E008959FEF80EC089500245F
S1130D400A941616170618060906089500240A942C
S1130D5012161306140605060895092E0394000CB2
S1130D6011F4882352F0BB0F40F4BF2B11F460FF41
S1130D7004C06F5F7F4F8F4F9F4F089557FD90586A
S1130D80440F551F59F05F3F71F04795880F97FB4B
S1130D90991F61F09F3F79F0879508951216130605
S1130DA01406551FF2CF4695F1DF08C01616170634
S1130DB01806991FF1CF8695710561050894089569
S1130DC0E894BB2766277727CB0197F908950E94FB
S1130DD0FA060C94AD060E949F0638F00E94A606FF
S1130DE020F0952311F00C9496060C949C06112483
S1130DF00C94E1060E94BE0670F3959FC1F3950F13
S1130E0050E0551F629FF001729FBB27F00DB11D8A
S1130E10639FAA27F00DB11DAA1F649F6627B00D1A
S1130E20A11D661F829F2227B00DA11D621F739F03
S1130E30B00DA11D621F839FA00D611D221F749F11
S1130E403327A00D611D231F849F600D211D822F58
S1130E50762F6A2F11249F5750409AF0F1F088237F
S1130E604AF0EE0FFF1FBB1F661F771F881F9150AC
S1130E705040A9F79E3F510580F00C9496060C94BF
S1130E80E1065F3FE4F3983ED4F386957795679542
S1130E90B795F795E7959F5FC1F7FE2B880F911DD6
S10F0EA09695879597F90895F894FFCF74
S1130EAC436865636B20636F636F2077617465724D
S1130EBC002D2D2D5448414E4B20594F552D2D2D81
S1130ECC007363726170206F72206E6F74007965A9
S1130EDC732D31207C204E6F2D3200486F77206D9E
S1130EEC616E792070617274733F004F6E652D31A1
S1130EFC207C2054776F2D32002D736372617069DE
S1130F0C6E6720646F6E65212D002D4772696E64C7
S1130F1C206F72206E6F743F2D005945532D312074
S1130F2C7C204E4F2D320054696D6520696E206D06
S1130F3C696E002D2D2D2D57656C636F6D652D2DF0
S1130F4C2D2D002D2D2D47726F75702D31352D2DB6
S1130F5C2D002D2D434F434F204D41535445522DBD
S1050F6C2D0052
S9030000FC
