:100000000C942A000C9443000C9443000C9443007D
:100010000C9443000C9443000C9443000C94430054
:100020000C9443000C9443000C9443000C94430044
:100030000C9443000C9443000C9443000C94430034
:100040000C9443000C9443000C9443000C94430024
:100050000C94430011241FBECFE5D8E0DEBFCDBF16
:0C0060000E9436000C943400F894FFCF8E
:10006C008FEF84BB1ABA8BBB89B3813011F485BB7B
:0A007C0001C015BA80E090E008957D
:040086000C940000D6
:00000001FF
